:020000020000FC
:020000002FC00F
:1000600004E00EBF0FE50DBF0FEF0ABBA69AA79ADB
:1000700002E800BD09EF09B900E10AB90BB107FFB9
:10008000FDCF0BB90CB10D3009F0F8CF0BB107FF64
:10009000FDCF0BB90CB1063209F0F0CF0BB107FF61
:1000A000FDCF0BB97CB188D00BB107FFFDCF0BB9E9
:1000B0007CB18ED0382F0BB107FFFDCF0BB97CB1CF
:1000C0007BD00BB107FFFDCF0BB97CB181D0482F9E
:1000D0000BB107FFFDCF0BB97CB16ED00BB107FFA1
:1000E000FDCF0BB97CB174D0582F0BB107FFFDCFFA
:1000F0000BB97CB161D00BB107FFFDCF0BB97CB15F
:1001000067D0682F04E612E05017610790F508E900
:1001100011E05017610768F100E313E03017410761
:1001200028F000E00BBB00E405BBA8CF04E612E01A
:100130003017410728F000E00BBB00E805BB9ECF5D
:1001400008E911E03017410728F000E005BB04E0A2
:100150000BBB94CF0CEC10E03017410728F000E007
:1001600005BB08E00BBB8ACF00E005BB00E10BBB81
:1001700085CF00E313E05017610728F000E005BBCE
:1001800000E40BBB7BCF04E612E05017610728F0B8
:1001900000E005BB00E20BBB71CF0CEC10E0501788
:1001A000610728F000E005BB02E00BBB67CF00E071
:1001B00005BB01E00BBB62CF8827F1E0E0EF0591C2
:1001C000002399F08395701709F0F9CF8A95089567
:1001D0008295F1E0E0EF0591002339F083957017E7
:1001E00009F0F9CF8A95829508950F910F9146CF26
:1001F0000D0E131516191A1C232526292A2C323404
:020200000000FC
:00000001FF
