:020000020000FC
:020000002FC00F
:1000600004E00EBF0FE50DBF00E407B907E806B9CD
:1000700008E00AB902E800BD09EF09B9F1E0E8E0DB
:100080000591003049F01BB115FFFDCF0CB90BB144
:1000900006FFFDCF0BB9F4CF00E407B9369A3699C5
:1000A000FECF24B135B101E407B9369A3699FECFB7
:1000B00044B155B1722F0BD01CD0732F08D019D07A
:1000C000742F05D016D0752F02D013D0D7CFF1E002
:1000D000E2E1072F0F70E00F08F4F3958491F1E04F
:1000E000E2E1072F02950F70E00F08F4F395949169
:1000F00008958CB90BB106FFFDCF0BB99CB90BB1BC
:1001000006FFFDCF0BB908952A2A2A2A2A2A0D268E
:1001100000000D0E131516191A1C232526292A2C4A
:02012000323477
:00000001FF
